{
  "_format": "hh-sol-artifact-1",
  "contractName": "SemaphoreVoting",
  "sourceName": "contracts/extensions/SemaphoreVoting.sol",
  "abi": [
    {
      "inputs": [
        {
          "internalType": "uint8[]",
          "name": "depths",
          "type": "uint8[]"
        },
        {
          "internalType": "address[]",
          "name": "verifierAddresses",
          "type": "address[]"
        }
      ],
      "stateMutability": "nonpayable",
      "type": "constructor"
    },
    {
      "inputs": [],
      "name": "Semaphore__GroupAlreadyExists",
      "type": "error"
    },
    {
      "inputs": [],
      "name": "Semaphore__GroupDoesNotExist",
      "type": "error"
    },
    {
      "inputs": [],
      "name": "Semaphore__GroupIdIsNotLessThanSnarkScalarField",
      "type": "error"
    },
    {
      "inputs": [],
      "name": "Semaphore__YouAreUsingTheSameNillifierTwice",
      "type": "error"
    },
    {
      "anonymous": false,
      "inputs": [
        {
          "indexed": true,
          "internalType": "uint256",
          "name": "groupId",
          "type": "uint256"
        },
        {
          "indexed": false,
          "internalType": "uint8",
          "name": "depth",
          "type": "uint8"
        },
        {
          "indexed": false,
          "internalType": "uint256",
          "name": "zeroValue",
          "type": "uint256"
        }
      ],
      "name": "GroupCreated",
      "type": "event"
    },
    {
      "anonymous": false,
      "inputs": [
        {
          "indexed": true,
          "internalType": "uint256",
          "name": "groupId",
          "type": "uint256"
        },
        {
          "indexed": false,
          "internalType": "uint256",
          "name": "identityCommitment",
          "type": "uint256"
        },
        {
          "indexed": false,
          "internalType": "uint256",
          "name": "root",
          "type": "uint256"
        }
      ],
      "name": "MemberAdded",
      "type": "event"
    },
    {
      "anonymous": false,
      "inputs": [
        {
          "indexed": true,
          "internalType": "uint256",
          "name": "groupId",
          "type": "uint256"
        },
        {
          "indexed": false,
          "internalType": "uint256",
          "name": "identityCommitment",
          "type": "uint256"
        },
        {
          "indexed": false,
          "internalType": "uint256",
          "name": "root",
          "type": "uint256"
        }
      ],
      "name": "MemberRemoved",
      "type": "event"
    },
    {
      "anonymous": false,
      "inputs": [
        {
          "indexed": false,
          "internalType": "uint256",
          "name": "nullifierHash",
          "type": "uint256"
        }
      ],
      "name": "NullifierHashAdded",
      "type": "event"
    },
    {
      "anonymous": false,
      "inputs": [
        {
          "indexed": false,
          "internalType": "uint256",
          "name": "pollId",
          "type": "uint256"
        },
        {
          "indexed": true,
          "internalType": "address",
          "name": "coordinator",
          "type": "address"
        }
      ],
      "name": "PollCreated",
      "type": "event"
    },
    {
      "anonymous": false,
      "inputs": [
        {
          "indexed": false,
          "internalType": "uint256",
          "name": "pollId",
          "type": "uint256"
        },
        {
          "indexed": true,
          "internalType": "address",
          "name": "coordinator",
          "type": "address"
        },
        {
          "indexed": false,
          "internalType": "uint256",
          "name": "decryptionKey",
          "type": "uint256"
        }
      ],
      "name": "PollEnded",
      "type": "event"
    },
    {
      "anonymous": false,
      "inputs": [
        {
          "indexed": false,
          "internalType": "uint256",
          "name": "pollId",
          "type": "uint256"
        },
        {
          "indexed": true,
          "internalType": "address",
          "name": "coordinator",
          "type": "address"
        },
        {
          "indexed": false,
          "internalType": "uint256",
          "name": "encryptionKey",
          "type": "uint256"
        }
      ],
      "name": "PollStarted",
      "type": "event"
    },
    {
      "anonymous": false,
      "inputs": [
        {
          "indexed": true,
          "internalType": "uint256",
          "name": "pollId",
          "type": "uint256"
        },
        {
          "indexed": false,
          "internalType": "bytes32",
          "name": "vote",
          "type": "bytes32"
        }
      ],
      "name": "VoteAdded",
      "type": "event"
    },
    {
      "inputs": [
        {
          "internalType": "uint256",
          "name": "pollId",
          "type": "uint256"
        },
        {
          "internalType": "uint256",
          "name": "identityCommitment",
          "type": "uint256"
        }
      ],
      "name": "addVoter",
      "outputs": [],
      "stateMutability": "nonpayable",
      "type": "function"
    },
    {
      "inputs": [
        {
          "internalType": "bytes32",
          "name": "vote",
          "type": "bytes32"
        },
        {
          "internalType": "uint256",
          "name": "nullifierHash",
          "type": "uint256"
        },
        {
          "internalType": "uint256",
          "name": "pollId",
          "type": "uint256"
        },
        {
          "internalType": "uint256[8]",
          "name": "proof",
          "type": "uint256[8]"
        }
      ],
      "name": "castVote",
      "outputs": [],
      "stateMutability": "nonpayable",
      "type": "function"
    },
    {
      "inputs": [
        {
          "internalType": "uint256",
          "name": "pollId",
          "type": "uint256"
        },
        {
          "internalType": "address",
          "name": "coordinator",
          "type": "address"
        },
        {
          "internalType": "uint8",
          "name": "depth",
          "type": "uint8"
        }
      ],
      "name": "createPoll",
      "outputs": [],
      "stateMutability": "nonpayable",
      "type": "function"
    },
    {
      "inputs": [
        {
          "internalType": "uint256",
          "name": "pollId",
          "type": "uint256"
        },
        {
          "internalType": "uint256",
          "name": "decryptionKey",
          "type": "uint256"
        }
      ],
      "name": "endPoll",
      "outputs": [],
      "stateMutability": "nonpayable",
      "type": "function"
    },
    {
      "inputs": [
        {
          "internalType": "uint256",
          "name": "groupId",
          "type": "uint256"
        }
      ],
      "name": "getDepth",
      "outputs": [
        {
          "internalType": "uint8",
          "name": "",
          "type": "uint8"
        }
      ],
      "stateMutability": "view",
      "type": "function"
    },
    {
      "inputs": [
        {
          "internalType": "uint256",
          "name": "groupId",
          "type": "uint256"
        }
      ],
      "name": "getNumberOfLeaves",
      "outputs": [
        {
          "internalType": "uint256",
          "name": "",
          "type": "uint256"
        }
      ],
      "stateMutability": "view",
      "type": "function"
    },
    {
      "inputs": [
        {
          "internalType": "uint256",
          "name": "groupId",
          "type": "uint256"
        }
      ],
      "name": "getRoot",
      "outputs": [
        {
          "internalType": "uint256",
          "name": "",
          "type": "uint256"
        }
      ],
      "stateMutability": "view",
      "type": "function"
    },
    {
      "inputs": [
        {
          "internalType": "uint256",
          "name": "pollId",
          "type": "uint256"
        },
        {
          "internalType": "uint256",
          "name": "encryptionKey",
          "type": "uint256"
        }
      ],
      "name": "startPoll",
      "outputs": [],
      "stateMutability": "nonpayable",
      "type": "function"
    }
  ],
  "bytecode": "0x60806040523480156200001157600080fd5b5060405162002352380380620023528339818101604052810190620000379190620002f5565b80518251146200007e576040517f08c379a000000000000000000000000000000000000000000000000000000000815260040162000075906200038f565b60405180910390fd5b60005b82518160ff1610156200017a57818160ff1681518110620000cb577f4e487b7100000000000000000000000000000000000000000000000000000000600052603260045260246000fd5b602002602001015160026000858460ff168151811062000114577f4e487b7100000000000000000000000000000000000000000000000000000000600052603260045260246000fd5b602002602001015160ff1660ff16815260200190815260200160002060006101000a81548173ffffffffffffffffffffffffffffffffffffffff021916908373ffffffffffffffffffffffffffffffffffffffff16021790555080600101905062000081565b50505062000583565b60006200019a6200019484620003da565b620003b1565b90508083825260208201905082856020860282011115620001ba57600080fd5b60005b85811015620001ee5781620001d388826200026d565b845260208401935060208301925050600181019050620001bd565b5050509392505050565b60006200020f620002098462000409565b620003b1565b905080838252602082019050828560208602820111156200022f57600080fd5b60005b85811015620002635781620002488882620002de565b84526020840193506020830192505060018101905062000232565b5050509392505050565b6000815190506200027e816200054f565b92915050565b600082601f8301126200029657600080fd5b8151620002a884826020860162000183565b91505092915050565b600082601f830112620002c357600080fd5b8151620002d5848260208601620001f8565b91505092915050565b600081519050620002ef8162000569565b92915050565b600080604083850312156200030957600080fd5b600083015167ffffffffffffffff8111156200032457600080fd5b6200033285828601620002b1565b925050602083015167ffffffffffffffff8111156200035057600080fd5b6200035e8582860162000284565b9150509250929050565b600062000377603f8362000438565b9150620003848262000500565b604082019050919050565b60006020820190508181036000830152620003aa8162000368565b9050919050565b6000620003bd620003d0565b9050620003cb82826200048a565b919050565b6000604051905090565b600067ffffffffffffffff821115620003f857620003f7620004c0565b5b602082029050602081019050919050565b600067ffffffffffffffff821115620004275762000426620004c0565b5b602082029050602081019050919050565b600082825260208201905092915050565b600062000456826200045d565b9050919050565b600073ffffffffffffffffffffffffffffffffffffffff82169050919050565b600060ff82169050919050565b6200049582620004ef565b810181811067ffffffffffffffff82111715620004b757620004b6620004c0565b5b80604052505050565b7f4e487b7100000000000000000000000000000000000000000000000000000000600052604160045260246000fd5b6000601f19601f8301169050919050565b7f53656d6170686f7265566f74696e673a20706172616d6574657273206c69737460008201527f7320646f6573206e6f742068617665207468652073616d65206c656e67746800602082015250565b6200055a8162000449565b81146200056657600080fd5b50565b62000574816200047d565b81146200058057600080fd5b50565b611dbf80620005936000396000f3fe608060405234801561001057600080fd5b50600436106100885760003560e01c80639b24b3b01161005b5780639b24b3b014610111578063b359dd4314610141578063b9c78c2b1461015d578063bbd8c7db1461018d57610088565b80630a120bb01461008d57806331c1e59d146100a9578063633f439d146100c557806375e618c9146100e1575b600080fd5b6100a760048036038101906100a2919061151c565b6101a9565b005b6100c360048036038101906100be91906114cd565b61033a565b005b6100df60048036038101906100da9190611440565b610537565b005b6100fb60048036038101906100f691906114a4565b61084b565b6040516101089190611a0f565b60405180910390f35b61012b600480360381019061012691906114a4565b610878565b60405161013891906119cb565b60405180910390f35b61015b6004803603810190610156919061151c565b610898565b005b610177600480360381019061017291906114a4565b610adb565b60405161018491906119cb565b60405180910390f35b6101a760048036038101906101a2919061151c565b610afb565b005b816101b2610d3e565b73ffffffffffffffffffffffffffffffffffffffff166003600083815260200190815260200160002060000160009054906101000a900473ffffffffffffffffffffffffffffffffffffffff1673ffffffffffffffffffffffffffffffffffffffff1614610255576040517f08c379a000000000000000000000000000000000000000000000000000000000815260040161024c9061192b565b60405180910390fd5b6000600281111561028f577f4e487b7100000000000000000000000000000000000000000000000000000000600052602160045260246000fd5b6003600085815260200190815260200160002060000160149054906101000a900460ff1660028111156102eb577f4e487b7100000000000000000000000000000000000000000000000000000000600052602160045260246000fd5b1461032b576040517f08c379a0000000000000000000000000000000000000000000000000000000008152600401610322906118eb565b60405180910390fd5b6103358383610d46565b505050565b600073ffffffffffffffffffffffffffffffffffffffff16600260008360ff1660ff16815260200190815260200160002060009054906101000a900473ffffffffffffffffffffffffffffffffffffffff1673ffffffffffffffffffffffffffffffffffffffff1614156103e3576040517f08c379a00000000000000000000000000000000000000000000000000000000081526004016103da906118cb565b60405180910390fd5b6103ef83826000610e55565b6103f7611366565b82816000019073ffffffffffffffffffffffffffffffffffffffff16908173ffffffffffffffffffffffffffffffffffffffff1681525050806003600086815260200190815260200160002060008201518160000160006101000a81548173ffffffffffffffffffffffffffffffffffffffff021916908373ffffffffffffffffffffffffffffffffffffffff16021790555060208201518160000160146101000a81548160ff021916908360028111156104db577f4e487b7100000000000000000000000000000000000000000000000000000000600052602160045260246000fd5b02179055509050508273ffffffffffffffffffffffffffffffffffffffff167fb447d309fd3b1a27466cdb08ccc02ee5188e9c71fc58af042bafe3e0bb4512308560405161052991906119cb565b60405180910390a250505050565b81610540610d3e565b73ffffffffffffffffffffffffffffffffffffffff166003600083815260200190815260200160002060000160009054906101000a900473ffffffffffffffffffffffffffffffffffffffff1673ffffffffffffffffffffffffffffffffffffffff16146105e3576040517f08c379a00000000000000000000000000000000000000000000000000000000081526004016105da9061192b565b60405180910390fd5b6000600360008581526020019081526020016000206040518060400160405290816000820160009054906101000a900473ffffffffffffffffffffffffffffffffffffffff1673ffffffffffffffffffffffffffffffffffffffff1673ffffffffffffffffffffffffffffffffffffffff1681526020016000820160149054906101000a900460ff1660028111156106a4577f4e487b7100000000000000000000000000000000000000000000000000000000600052602160045260246000fd5b60028111156106dc577f4e487b7100000000000000000000000000000000000000000000000000000000600052602160045260246000fd5b8152505090506001600281111561071c577f4e487b7100000000000000000000000000000000000000000000000000000000600052602160045260246000fd5b81602001516002811115610759577f4e487b7100000000000000000000000000000000000000000000000000000000600052602160045260246000fd5b14610799576040517f08c379a00000000000000000000000000000000000000000000000000000000081526004016107909061190b565b60405180910390fd5b60006107a48561084b565b905060006107b186610878565b90506000600260008460ff1660ff16815260200190815260200160002060009054906101000a900473ffffffffffffffffffffffffffffffffffffffff1690506107ff89838a8a8a86610fb1565b61080888611301565b867f9259c591af3680137739dc2b275c388eb1639a143b49022e7062fa162f14776d8a6040516108389190611890565b60405180910390a2505050505050505050565b60006001600083815260200190815260200160002060000160009054906101000a900460ff169050919050565b600060016000838152602001908152602001600020600101549050919050565b816108a1610d3e565b73ffffffffffffffffffffffffffffffffffffffff166003600083815260200190815260200160002060000160009054906101000a900473ffffffffffffffffffffffffffffffffffffffff1673ffffffffffffffffffffffffffffffffffffffff1614610944576040517f08c379a000000000000000000000000000000000000000000000000000000000815260040161093b9061192b565b60405180910390fd5b6000600281111561097e577f4e487b7100000000000000000000000000000000000000000000000000000000600052602160045260246000fd5b6003600085815260200190815260200160002060000160149054906101000a900460ff1660028111156109da577f4e487b7100000000000000000000000000000000000000000000000000000000600052602160045260246000fd5b14610a1a576040517f08c379a0000000000000000000000000000000000000000000000000000000008152600401610a119061194b565b60405180910390fd5b60016003600085815260200190815260200160002060000160146101000a81548160ff02191690836002811115610a7a577f4e487b7100000000000000000000000000000000000000000000000000000000600052602160045260246000fd5b0217905550610a87610d3e565b73ffffffffffffffffffffffffffffffffffffffff167f426c5e6bd38728569cc4e1f0a309f506d4c1bc56189920d59343af2639b60d3e8484604051610ace9291906119e6565b60405180910390a2505050565b600060016000838152602001908152602001600020600201549050919050565b81610b04610d3e565b73ffffffffffffffffffffffffffffffffffffffff166003600083815260200190815260200160002060000160009054906101000a900473ffffffffffffffffffffffffffffffffffffffff1673ffffffffffffffffffffffffffffffffffffffff1614610ba7576040517f08c379a0000000000000000000000000000000000000000000000000000000008152600401610b9e9061192b565b60405180910390fd5b60016002811115610be1577f4e487b7100000000000000000000000000000000000000000000000000000000600052602160045260246000fd5b6003600085815260200190815260200160002060000160149054906101000a900460ff166002811115610c3d577f4e487b7100000000000000000000000000000000000000000000000000000000600052602160045260246000fd5b14610c7d576040517f08c379a0000000000000000000000000000000000000000000000000000000008152600401610c74906118ab565b60405180910390fd5b60026003600085815260200190815260200160002060000160146101000a81548160ff02191690836002811115610cdd577f4e487b7100000000000000000000000000000000000000000000000000000000600052602160045260246000fd5b0217905550610cea610d3e565b73ffffffffffffffffffffffffffffffffffffffff167f4a0c303670c99ff9b9eab216bcca4f03007fbece83818599a2946ea62c541fde8484604051610d319291906119e6565b60405180910390a2505050565b600033905090565b6000610d518361084b565b60ff161415610d8c576040517f029f057900000000000000000000000000000000000000000000000000000000815260040160405180910390fd5b6001600083815260200190815260200160002073__$0c6eb7207c37accf1552a1c47686411ac0$__63168703fa9091836040518363ffffffff1660e01b8152600401610dd992919061196b565b60006040518083038186803b158015610df157600080fd5b505af4158015610e05573d6000803e3d6000fd5b505050506000610e1483610878565b9050827f03fd27265b7dd1f55558bedc22a58fa3b10afb1be776e614bd5a7ba7b94994068383604051610e489291906119e6565b60405180910390a2505050565b7f30644e72e131a029b85045b68181585d2833e84879b9709143e1f593f00000018310610eae576040517fa61c78ca00000000000000000000000000000000000000000000000000000000815260040160405180910390fd5b6000610eb98461084b565b60ff1614610ef3576040517f8121725b00000000000000000000000000000000000000000000000000000000815260040160405180910390fd5b6001600084815260200190815260200160002073__$0c6eb7207c37accf1552a1c47686411ac0$__63b4bdd117909184846040518463ffffffff1660e01b8152600401610f4293929190611994565b60006040518083038186803b158015610f5a57600080fd5b505af4158015610f6e573d6000803e3d6000fd5b50505050827fc3082aa494e9088c2c9f0fb62a0b6bd46e6699acb94cfba35be29b95a93f68c88383604051610fa4929190611a2a565b60405180910390a2505050565b60008085815260200190815260200160002060009054906101000a900460ff1615611008576040517f948d067400000000000000000000000000000000000000000000000000000000815260040160405180910390fd5b60006110138761132f565b90508173ffffffffffffffffffffffffffffffffffffffff16635fe8c13b604051806040016040528086600060088110611076577f4e487b7100000000000000000000000000000000000000000000000000000000600052603260045260246000fd5b60200201358152602001866001600881106110ba577f4e487b7100000000000000000000000000000000000000000000000000000000600052603260045260246000fd5b60200201358152506040518060400160405280604051806040016040528089600260088110611112577f4e487b7100000000000000000000000000000000000000000000000000000000600052603260045260246000fd5b6020020135815260200189600360088110611156577f4e487b7100000000000000000000000000000000000000000000000000000000600052603260045260246000fd5b602002013581525081526020016040518060400160405280896004600881106111a8577f4e487b7100000000000000000000000000000000000000000000000000000000600052603260045260246000fd5b60200201358152602001896005600881106111ec577f4e487b7100000000000000000000000000000000000000000000000000000000600052603260045260246000fd5b602002013581525081525060405180604001604052808860066008811061123c577f4e487b7100000000000000000000000000000000000000000000000000000000600052603260045260246000fd5b6020020135815260200188600760088110611280577f4e487b7100000000000000000000000000000000000000000000000000000000600052603260045260246000fd5b602002013581525060405180608001604052808c81526020018b81526020018781526020018a8152506040518563ffffffff1660e01b81526004016112c89493929190611849565b60006040518083038186803b1580156112e057600080fd5b505afa1580156112f4573d6000803e3d6000fd5b5050505050505050505050565b600160008083815260200190815260200160002060006101000a81548160ff02191690831515021790555050565b6000600882604051602001611344919061182e565b6040516020818303038152906040528051906020012060001c901c9050919050565b6040518060400160405280600073ffffffffffffffffffffffffffffffffffffffff168152602001600060028111156113c8577f4e487b7100000000000000000000000000000000000000000000000000000000600052602160045260246000fd5b81525090565b6000813590506113dd81611d2d565b92915050565b6000819050826020600802820111156113fb57600080fd5b92915050565b60008135905061141081611d44565b92915050565b60008135905061142581611d5b565b92915050565b60008135905061143a81611d72565b92915050565b600080600080610160858703121561145757600080fd5b600061146587828801611401565b945050602061147687828801611416565b935050604061148787828801611416565b9250506060611498878288016113e3565b91505092959194509250565b6000602082840312156114b657600080fd5b60006114c484828501611416565b91505092915050565b6000806000606084860312156114e257600080fd5b60006114f086828701611416565b9350506020611501868287016113ce565b92505060406115128682870161142b565b9150509250925092565b6000806040838503121561152f57600080fd5b600061153d85828601611416565b925050602061154e85828601611416565b9150509250929050565b600061156483836115df565b60408301905092915050565b600061157c83836117e3565b60208301905092915050565b61159181611a71565b61159b8184611ab9565b92506115a682611a53565b8060005b838110156115d75781516115be8782611558565b96506115c983611a92565b9250506001810190506115aa565b505050505050565b6115e881611a7c565b6115f28184611ac4565b92506115fd82611a5d565b8060005b8381101561162e5781516116158782611570565b965061162083611a9f565b925050600181019050611601565b505050505050565b61163f81611a7c565b6116498184611acf565b925061165482611a5d565b8060005b8381101561168557815161166c8782611570565b965061167783611a9f565b925050600181019050611658565b505050505050565b61169681611a87565b6116a08184611ada565b92506116ab82611a67565b8060005b838110156116dc5781516116c38782611570565b96506116ce83611aac565b9250506001810190506116af565b505050505050565b6116ed81611b08565b82525050565b6117046116ff82611b08565b611b49565b82525050565b6000611717602483611ae5565b915061172282611b53565b604082019050919050565b600061173a602d83611ae5565b915061174582611ba2565b604082019050919050565b600061175d603783611ae5565b915061176882611bf1565b604082019050919050565b6000611780603983611ae5565b915061178b82611c40565b604082019050919050565b60006117a3603383611ae5565b91506117ae82611c8f565b604082019050919050565b60006117c6602e83611ae5565b91506117d182611cde565b604082019050919050565b8082525050565b6117ec81611b32565b82525050565b6117fb81611b32565b82525050565b61180a81611b32565b82525050565b61181981611b3c565b82525050565b61182881611b3c565b82525050565b600061183a82846116f3565b60208201915081905092915050565b60006101808201905061185f6000830187611636565b61186c6040830186611588565b61187960c0830185611636565b61188761010083018461168d565b95945050505050565b60006020820190506118a560008301846116e4565b92915050565b600060208201905081810360008301526118c48161170a565b9050919050565b600060208201905081810360008301526118e48161172d565b9050919050565b6000602082019050818103600083015261190481611750565b9050919050565b6000602082019050818103600083015261192481611773565b9050919050565b6000602082019050818103600083015261194481611796565b9050919050565b60006020820190508181036000830152611964816117b9565b9050919050565b600060408201905061198060008301856117dc565b61198d6020830184611801565b9392505050565b60006060820190506119a960008301866117dc565b6119b6602083018561181f565b6119c36040830184611801565b949350505050565b60006020820190506119e060008301846117f2565b92915050565b60006040820190506119fb60008301856117f2565b611a0860208301846117f2565b9392505050565b6000602082019050611a246000830184611810565b92915050565b6000604082019050611a3f6000830185611810565b611a4c60208301846117f2565b9392505050565b6000819050919050565b6000819050919050565b6000819050919050565b600060029050919050565b600060029050919050565b600060049050919050565b6000602082019050919050565b6000602082019050919050565b6000602082019050919050565b600081905092915050565b600081905092915050565b600081905092915050565b600081905092915050565b600082825260208201905092915050565b6000611b0182611b12565b9050919050565b6000819050919050565b600073ffffffffffffffffffffffffffffffffffffffff82169050919050565b6000819050919050565b600060ff82169050919050565b6000819050919050565b7f53656d6170686f7265566f74696e673a20706f6c6c206973206e6f74206f6e6760008201527f6f696e6700000000000000000000000000000000000000000000000000000000602082015250565b7f53656d6170686f7265566f74696e673a2064657074682076616c75652069732060008201527f6e6f7420737570706f7274656400000000000000000000000000000000000000602082015250565b7f53656d6170686f7265566f74696e673a20766f746572732063616e206f6e6c7960008201527f206265206164646564206265666f726520766f74696e67000000000000000000602082015250565b7f53656d6170686f7265566f74696e673a20766f74652063616e206f6e6c79206260008201527f65206361737420696e20616e206f6e676f696e6720706f6c6c00000000000000602082015250565b7f53656d6170686f7265566f74696e673a2063616c6c6572206973206e6f74207460008201527f686520706f6c6c20636f6f7264696e61746f7200000000000000000000000000602082015250565b7f53656d6170686f7265566f74696e673a20706f6c6c2068617320616c7265616460008201527f79206265656e2073746172746564000000000000000000000000000000000000602082015250565b611d3681611af6565b8114611d4157600080fd5b50565b611d4d81611b08565b8114611d5857600080fd5b50565b611d6481611b32565b8114611d6f57600080fd5b50565b611d7b81611b3c565b8114611d8657600080fd5b5056fea2646970667358221220654f9d7e70671e0f674d6d44135590b79d9b57c3738fef5b8ff21dd6d7ec323164736f6c63430008040033",
  "linkReferences": {
    "@zk-kit/incremental-merkle-tree.sol/IncrementalBinaryTree.sol": {
      "IncrementalBinaryTree": [
        {
          "length": 20,
          "start": 4916
        },
        {
          "length": 20,
          "start": 5275
        }
      ]
    }
  },
  "deployedLinkReferences": {
    "@zk-kit/incremental-merkle-tree.sol/IncrementalBinaryTree.sol": {
      "IncrementalBinaryTree": [
        {
          "length": 20,
          "start": 3489
        },
        {
          "length": 20,
          "start": 3848
        }
      ]
    }
  }
}